:1000000012C019C018C017C016C015C014C013C044
:1000100012C011C010C00FC00EC00DC00CC00BC06C
:100020000AC009C008C011241FBECFE5D4E0DEBF5E
:10003000CDBF5FD06EC0E4CF82B984EC86BF089597
:1000400006B607FEFDCF81B1887F803661F0883625
:1000500061F0883A61F0803B61F0803761F0883769
:1000600079F782E0089580E0089580E0089581E0C6
:10007000089581E0089582E0089583B984EC86BFF5
:1000800006B607FEFDCF81B1887F803A29F486B796
:10009000806886BF8FEF0895883B59F0803C29F433
:1000A00086B7806886BF8EEF0895883C21F48DEF77
:1000B000089580E008958CEF089584EC86BF06B61D
:1000C00007FEFDCF81B1887F803811F0803911F4AF
:1000D00083B10895883811F0883911F483B10895F7
:1000E000803A29F486B7806886BF8FEF08958EEF37
:1000F000089580EF87BB8FEF88BB8AE49DDFA0DF88
:10010000882321F086B3806FB8DFF9CFD6DF88BBB4
:06011000F6CFF894FFCFCA
:00000001FF
