:1000000012C019C018C017C016C015C014C013C044
:1000100012C011C010C00FC00EC00DC00CC00BC06C
:100020000AC009C008C011241FBECFE5D4E0DEBF5E
:10003000CDBF5ED0A1C0E4CF11B880E280B90895F1
:1000400094EA96BF06B607FEFDCF91B1987F98302F
:1000500071F483B984E886BF06B607FEFDCF81B18F
:10006000887F883131F0803231F482E0089580E079
:10007000089581E0089583E0089583B984E886BFF8
:1000800006B607FEFDCF81B1887F883221F080332C
:1000900021F481E0089580E0089582E0089584E8E5
:1000A00086BF06B607FEFDCF83B1089584E986BFFB
:1000B00006B604FCFDCF0895CF93C2DFC1B1C87F5F
:1000C000F5DFC83111F481E001C080E0CF910895DF
:1000D000CF93C62FB5DF8C2FD0DFE8DFCF91089507
:1000E000CF93AEDFDCDFC82FE1DF8C2FCF910895F7
:1000F0008FEF87BBA1DF8AE4DFDF8823E1F36FEEB8
:100100008AE4E6DF8BE4ECDF88BB2FEF82E597E043
:10011000215080409040E1F700C000006FED8AE47C
:10012000D7DF8BE4DDDF88BB2FEF82E597E021503E
:1001300080409040E1F700C000006FEB8AE4C8DF28
:100140008BE4CEDF88BB2FEF82E597E02150804023
:100150009040E1F700C000006FE78AE4B9DF8BE46C
:10016000BFDF88BB2FEF82E597E0215080409040B1
:0C017000E1F700C00000BFCFF894FFCF03
:00000001FF
